{
  "_format": "hh-sol-artifact-1",
  "contractName": "MusicNFT",
  "sourceName": "contracts/MusicNFT.sol",
  "abi": [
    {
      "inputs": [],
      "stateMutability": "nonpayable",
      "type": "constructor"
    },
    {
      "anonymous": false,
      "inputs": [
        {
          "indexed": true,
          "internalType": "address",
          "name": "owner",
          "type": "address"
        },
        {
          "indexed": true,
          "internalType": "address",
          "name": "approved",
          "type": "address"
        },
        {
          "indexed": true,
          "internalType": "uint256",
          "name": "tokenId",
          "type": "uint256"
        }
      ],
      "name": "Approval",
      "type": "event"
    },
    {
      "anonymous": false,
      "inputs": [
        {
          "indexed": true,
          "internalType": "address",
          "name": "owner",
          "type": "address"
        },
        {
          "indexed": true,
          "internalType": "address",
          "name": "operator",
          "type": "address"
        },
        {
          "indexed": false,
          "internalType": "bool",
          "name": "approved",
          "type": "bool"
        }
      ],
      "name": "ApprovalForAll",
      "type": "event"
    },
    {
      "anonymous": false,
      "inputs": [
        {
          "indexed": true,
          "internalType": "uint256",
          "name": "tokenId",
          "type": "uint256"
        },
        {
          "indexed": true,
          "internalType": "uint256",
          "name": "parentId",
          "type": "uint256"
        },
        {
          "indexed": false,
          "internalType": "address",
          "name": "owner",
          "type": "address"
        },
        {
          "indexed": false,
          "internalType": "string",
          "name": "tokenU",
          "type": "string"
        },
        {
          "indexed": false,
          "internalType": "uint256",
          "name": "version",
          "type": "uint256"
        }
      ],
      "name": "NewVersionCreated",
      "type": "event"
    },
    {
      "anonymous": false,
      "inputs": [
        {
          "indexed": true,
          "internalType": "uint256",
          "name": "index",
          "type": "uint256"
        },
        {
          "indexed": false,
          "internalType": "address",
          "name": "owner",
          "type": "address"
        },
        {
          "indexed": false,
          "internalType": "string",
          "name": "tokenU",
          "type": "string"
        }
      ],
      "name": "TokenCreated",
      "type": "event"
    },
    {
      "anonymous": false,
      "inputs": [
        {
          "indexed": true,
          "internalType": "address",
          "name": "from",
          "type": "address"
        },
        {
          "indexed": true,
          "internalType": "address",
          "name": "to",
          "type": "address"
        },
        {
          "indexed": true,
          "internalType": "uint256",
          "name": "tokenId",
          "type": "uint256"
        }
      ],
      "name": "Transfer",
      "type": "event"
    },
    {
      "inputs": [],
      "name": "_tokenIds",
      "outputs": [
        {
          "internalType": "uint256",
          "name": "_value",
          "type": "uint256"
        }
      ],
      "stateMutability": "view",
      "type": "function"
    },
    {
      "inputs": [
        {
          "internalType": "address",
          "name": "to",
          "type": "address"
        },
        {
          "internalType": "uint256",
          "name": "tokenId",
          "type": "uint256"
        }
      ],
      "name": "approve",
      "outputs": [],
      "stateMutability": "nonpayable",
      "type": "function"
    },
    {
      "inputs": [
        {
          "internalType": "address",
          "name": "owner",
          "type": "address"
        }
      ],
      "name": "balanceOf",
      "outputs": [
        {
          "internalType": "uint256",
          "name": "",
          "type": "uint256"
        }
      ],
      "stateMutability": "view",
      "type": "function"
    },
    {
      "inputs": [
        {
          "internalType": "uint256",
          "name": "parentId",
          "type": "uint256"
        },
        {
          "internalType": "string",
          "name": "tokenURI",
          "type": "string"
        },
        {
          "internalType": "uint8",
          "name": "_royalty",
          "type": "uint8"
        }
      ],
      "name": "createNewV",
      "outputs": [
        {
          "internalType": "uint256",
          "name": "",
          "type": "uint256"
        }
      ],
      "stateMutability": "nonpayable",
      "type": "function"
    },
    {
      "inputs": [
        {
          "internalType": "string",
          "name": "tokenURI",
          "type": "string"
        },
        {
          "internalType": "uint8",
          "name": "_royalty",
          "type": "uint8"
        }
      ],
      "name": "createSong",
      "outputs": [
        {
          "internalType": "uint256",
          "name": "",
          "type": "uint256"
        }
      ],
      "stateMutability": "nonpayable",
      "type": "function"
    },
    {
      "inputs": [
        {
          "internalType": "uint256",
          "name": "tokenId",
          "type": "uint256"
        }
      ],
      "name": "getApproved",
      "outputs": [
        {
          "internalType": "address",
          "name": "",
          "type": "address"
        }
      ],
      "stateMutability": "view",
      "type": "function"
    },
    {
      "inputs": [
        {
          "internalType": "uint256",
          "name": "",
          "type": "uint256"
        }
      ],
      "name": "isActive",
      "outputs": [
        {
          "internalType": "bool",
          "name": "",
          "type": "bool"
        }
      ],
      "stateMutability": "view",
      "type": "function"
    },
    {
      "inputs": [
        {
          "internalType": "address",
          "name": "owner",
          "type": "address"
        },
        {
          "internalType": "address",
          "name": "operator",
          "type": "address"
        }
      ],
      "name": "isApprovedForAll",
      "outputs": [
        {
          "internalType": "bool",
          "name": "",
          "type": "bool"
        }
      ],
      "stateMutability": "view",
      "type": "function"
    },
    {
      "inputs": [
        {
          "internalType": "uint256",
          "name": "",
          "type": "uint256"
        }
      ],
      "name": "minter",
      "outputs": [
        {
          "internalType": "address",
          "name": "",
          "type": "address"
        }
      ],
      "stateMutability": "view",
      "type": "function"
    },
    {
      "inputs": [],
      "name": "name",
      "outputs": [
        {
          "internalType": "string",
          "name": "",
          "type": "string"
        }
      ],
      "stateMutability": "view",
      "type": "function"
    },
    {
      "inputs": [
        {
          "internalType": "uint256",
          "name": "tokenId",
          "type": "uint256"
        }
      ],
      "name": "ownerOf",
      "outputs": [
        {
          "internalType": "address",
          "name": "",
          "type": "address"
        }
      ],
      "stateMutability": "view",
      "type": "function"
    },
    {
      "inputs": [
        {
          "internalType": "uint256",
          "name": "",
          "type": "uint256"
        }
      ],
      "name": "parent",
      "outputs": [
        {
          "internalType": "uint256",
          "name": "",
          "type": "uint256"
        }
      ],
      "stateMutability": "view",
      "type": "function"
    },
    {
      "inputs": [
        {
          "internalType": "uint256",
          "name": "",
          "type": "uint256"
        }
      ],
      "name": "royalty",
      "outputs": [
        {
          "internalType": "uint256",
          "name": "",
          "type": "uint256"
        }
      ],
      "stateMutability": "view",
      "type": "function"
    },
    {
      "inputs": [
        {
          "internalType": "address",
          "name": "from",
          "type": "address"
        },
        {
          "internalType": "address",
          "name": "to",
          "type": "address"
        },
        {
          "internalType": "uint256",
          "name": "tokenId",
          "type": "uint256"
        }
      ],
      "name": "safeTransferFrom",
      "outputs": [],
      "stateMutability": "nonpayable",
      "type": "function"
    },
    {
      "inputs": [
        {
          "internalType": "address",
          "name": "from",
          "type": "address"
        },
        {
          "internalType": "address",
          "name": "to",
          "type": "address"
        },
        {
          "internalType": "uint256",
          "name": "tokenId",
          "type": "uint256"
        },
        {
          "internalType": "bytes",
          "name": "_data",
          "type": "bytes"
        }
      ],
      "name": "safeTransferFrom",
      "outputs": [],
      "stateMutability": "nonpayable",
      "type": "function"
    },
    {
      "inputs": [
        {
          "internalType": "address",
          "name": "operator",
          "type": "address"
        },
        {
          "internalType": "bool",
          "name": "approved",
          "type": "bool"
        }
      ],
      "name": "setApprovalForAll",
      "outputs": [],
      "stateMutability": "nonpayable",
      "type": "function"
    },
    {
      "inputs": [
        {
          "internalType": "bytes4",
          "name": "interfaceId",
          "type": "bytes4"
        }
      ],
      "name": "supportsInterface",
      "outputs": [
        {
          "internalType": "bool",
          "name": "",
          "type": "bool"
        }
      ],
      "stateMutability": "view",
      "type": "function"
    },
    {
      "inputs": [],
      "name": "symbol",
      "outputs": [
        {
          "internalType": "string",
          "name": "",
          "type": "string"
        }
      ],
      "stateMutability": "view",
      "type": "function"
    },
    {
      "inputs": [
        {
          "internalType": "uint256",
          "name": "tokenId",
          "type": "uint256"
        }
      ],
      "name": "tokenURI",
      "outputs": [
        {
          "internalType": "string",
          "name": "",
          "type": "string"
        }
      ],
      "stateMutability": "view",
      "type": "function"
    },
    {
      "inputs": [
        {
          "internalType": "address",
          "name": "from",
          "type": "address"
        },
        {
          "internalType": "address",
          "name": "to",
          "type": "address"
        },
        {
          "internalType": "uint256",
          "name": "tokenId",
          "type": "uint256"
        }
      ],
      "name": "transferFrom",
      "outputs": [],
      "stateMutability": "nonpayable",
      "type": "function"
    },
    {
      "inputs": [
        {
          "internalType": "uint256",
          "name": "",
          "type": "uint256"
        }
      ],
      "name": "version",
      "outputs": [
        {
          "internalType": "uint256",
          "name": "",
          "type": "uint256"
        }
      ],
      "stateMutability": "view",
      "type": "function"
    }
  ],
  "bytecode": "0x60806040526014600d60006101000a81548160ff021916908360ff1602179055506005600d60016101000a81548160ff021916908360ff1602179055503480156200004957600080fd5b506040518060400160405280600581526020017f4d757369630000000000000000000000000000000000000000000000000000008152506040518060400160405280600381526020017f4d534300000000000000000000000000000000000000000000000000000000008152508160009080519060200190620000ce929190620000f0565b508060019080519060200190620000e7929190620000f0565b50505062000205565b828054620000fe90620001a0565b90600052602060002090601f0160209004810192826200012257600085556200016e565b82601f106200013d57805160ff19168380011785556200016e565b828001600101855582156200016e579182015b828111156200016d57825182559160200191906001019062000150565b5b5090506200017d919062000181565b5090565b5b808211156200019c57600081600090555060010162000182565b5090565b60006002820490506001821680620001b957607f821691505b60208210811415620001d057620001cf620001d6565b5b50919050565b7f4e487b7100000000000000000000000000000000000000000000000000000000600052602260045260246000fd5b61349980620002156000396000f3fe608060405234801561001057600080fd5b50600436106101375760003560e01c806370a08231116100b8578063ac8d856c1161007c578063ac8d856c14610386578063b88d4fde146103b6578063c87b56dd146103d2578063d3cbde3114610402578063e814cb7114610432578063e985e9c51461046257610137565b806370a08231146102ce57806382afd23b146102fe57806395d89b411461032e578063a22cb4651461034c578063aa46a4001461036857610137565b806342842e0e116100ff57806342842e0e146101f25780634eaa9d221461020e578063521e10541461023e5780636352211e1461026e57806363729f2b1461029e57610137565b806301ffc9a71461013c57806306fdde031461016c578063081812fc1461018a578063095ea7b3146101ba57806323b872dd146101d6575b600080fd5b610156600480360381019061015191906121b1565b610492565b604051610163919061276c565b60405180910390f35b610174610574565b6040516101819190612787565b60405180910390f35b6101a4600480360381019061019f9190612257565b610606565b6040516101b19190612697565b60405180910390f35b6101d460048036038101906101cf9190612175565b61068b565b005b6101f060048036038101906101eb919061206f565b6107a3565b005b61020c6004803603810190610207919061206f565b6107e4565b005b61022860048036038101906102239190612257565b610804565b6040516102359190612a29565b60405180910390f35b61025860048036038101906102539190612203565b61081c565b6040516102659190612a29565b60405180910390f35b61028860048036038101906102839190612257565b610962565b6040516102959190612697565b60405180910390f35b6102b860048036038101906102b39190612280565b610a14565b6040516102c59190612a29565b60405180910390f35b6102e860048036038101906102e3919061200a565b610c68565b6040516102f59190612a29565b60405180910390f35b61031860048036038101906103139190612257565b610d20565b604051610325919061276c565b60405180910390f35b610336610d40565b6040516103439190612787565b60405180910390f35b61036660048036038101906103619190612139565b610dd2565b005b610370610de8565b60405161037d9190612a29565b60405180910390f35b6103a0600480360381019061039b9190612257565b610df4565b6040516103ad9190612697565b60405180910390f35b6103d060048036038101906103cb91906120be565b610e27565b005b6103ec60048036038101906103e79190612257565b610e89565b6040516103f99190612787565b60405180910390f35b61041c60048036038101906104179190612257565b610fdb565b6040516104299190612a29565b60405180910390f35b61044c60048036038101906104479190612257565b610ff3565b6040516104599190612a29565b60405180910390f35b61047c60048036038101906104779190612033565b61100b565b604051610489919061276c565b60405180910390f35b60007f80ac58cd000000000000000000000000000000000000000000000000000000007bffffffffffffffffffffffffffffffffffffffffffffffffffffffff1916827bffffffffffffffffffffffffffffffffffffffffffffffffffffffff1916148061055d57507f5b5e139f000000000000000000000000000000000000000000000000000000007bffffffffffffffffffffffffffffffffffffffffffffffffffffffff1916827bffffffffffffffffffffffffffffffffffffffffffffffffffffffff1916145b8061056d575061056c8261109f565b5b9050919050565b60606000805461058390612c8c565b80601f01602080910402602001604051908101604052809291908181526020018280546105af90612c8c565b80156105fc5780601f106105d1576101008083540402835291602001916105fc565b820191906000526020600020905b8154815290600101906020018083116105df57829003601f168201915b5050505050905090565b600061061182611109565b610650576040517f08c379a000000000000000000000000000000000000000000000000000000000815260040161064790612929565b60405180910390fd5b6004600083815260200190815260200160002060009054906101000a900473ffffffffffffffffffffffffffffffffffffffff169050919050565b600061069682610962565b90508073ffffffffffffffffffffffffffffffffffffffff168373ffffffffffffffffffffffffffffffffffffffff161415610707576040517f08c379a00000000000000000000000000000000000000000000000000000000081526004016106fe906129a9565b60405180910390fd5b8073ffffffffffffffffffffffffffffffffffffffff16610726611175565b73ffffffffffffffffffffffffffffffffffffffff16148061075557506107548161074f611175565b61100b565b5b610794576040517f08c379a000000000000000000000000000000000000000000000000000000000815260040161078b90612869565b60405180910390fd5b61079e838361117d565b505050565b600115156008600083815260200190815260200160002060009054906101000a900460ff161515146107d457600080fd5b6107df838383611236565b505050565b6107ff83838360405180602001604052806000815250610e27565b505050565b600a6020528060005260406000206000915090505481565b6000600d60009054906101000a900460ff1660ff168260ff16111561084057600080fd5b61084a6007611296565b600061085660076112ac565b905061086233826112ba565b61086c8185611488565b6001600960008381526020019081526020016000208190555060016008600083815260200190815260200160002060006101000a81548160ff02191690831515021790555033600b600083815260200190815260200160002060006101000a81548173ffffffffffffffffffffffffffffffffffffffff021916908373ffffffffffffffffffffffffffffffffffffffff1602179055508260ff16600c600083815260200190815260200160002081905550807f82a09cc58c9cecf0eb61d8994283ec804165931801f8b77e42dcb3b556c5c5be33866040516109509291906126fe565b60405180910390a28091505092915050565b6000806002600084815260200190815260200160002060009054906101000a900473ffffffffffffffffffffffffffffffffffffffff169050600073ffffffffffffffffffffffffffffffffffffffff168173ffffffffffffffffffffffffffffffffffffffff161415610a0b576040517f08c379a0000000000000000000000000000000000000000000000000000000008152600401610a02906128a9565b60405180910390fd5b80915050919050565b6000610a27610a21611175565b856114fc565b610a66576040517f08c379a0000000000000000000000000000000000000000000000000000000008152600401610a5d906129e9565b60405180910390fd5b6008600085815260200190815260200160002060009054906101000a900460ff16610ac6576040517f08c379a0000000000000000000000000000000000000000000000000000000008152600401610abd906127a9565b60405180910390fd5b6000600960008681526020019081526020016000205411610b1c576040517f08c379a0000000000000000000000000000000000000000000000000000000008152600401610b1390612a09565b60405180910390fd5b6000610b28848461081c565b905060006008600087815260200190815260200160002060006101000a81548160ff02191690831515021790555084600a60008381526020019081526020016000208190555060016009600087815260200190815260200160002054610b8e9190612b0e565b6009600083815260200190815260200160002081905550600d60019054906101000a900460ff1660ff1660096000838152602001908152602001600020541115610c0d576040517f08c379a0000000000000000000000000000000000000000000000000000000008152600401610c0490612989565b60405180910390fd5b84817f61622d812079b52e677e56a3d66595c1bbb4658354da42d698aeaad426a1d95933876009600087815260200190815260200160002054604051610c559392919061272e565b60405180910390a3809150509392505050565b60008073ffffffffffffffffffffffffffffffffffffffff168273ffffffffffffffffffffffffffffffffffffffff161415610cd9576040517f08c379a0000000000000000000000000000000000000000000000000000000008152600401610cd090612889565b60405180910390fd5b600360008373ffffffffffffffffffffffffffffffffffffffff1673ffffffffffffffffffffffffffffffffffffffff168152602001908152602001600020549050919050565b60086020528060005260406000206000915054906101000a900460ff1681565b606060018054610d4f90612c8c565b80601f0160208091040260200160405190810160405280929190818152602001828054610d7b90612c8c565b8015610dc85780601f10610d9d57610100808354040283529160200191610dc8565b820191906000526020600020905b815481529060010190602001808311610dab57829003601f168201915b5050505050905090565b610de4610ddd611175565b83836115da565b5050565b60078060000154905081565b600b6020528060005260406000206000915054906101000a900473ffffffffffffffffffffffffffffffffffffffff1681565b610e38610e32611175565b836114fc565b610e77576040517f08c379a0000000000000000000000000000000000000000000000000000000008152600401610e6e906129c9565b60405180910390fd5b610e8384848484611747565b50505050565b6060610e9482611109565b610ed3576040517f08c379a0000000000000000000000000000000000000000000000000000000008152600401610eca90612909565b60405180910390fd5b6000600660008481526020019081526020016000208054610ef390612c8c565b80601f0160208091040260200160405190810160405280929190818152602001828054610f1f90612c8c565b8015610f6c5780601f10610f4157610100808354040283529160200191610f6c565b820191906000526020600020905b815481529060010190602001808311610f4f57829003601f168201915b505050505090506000610f7d6117a3565b9050600081511415610f93578192505050610fd6565b600082511115610fc8578082604051602001610fb0929190612673565b60405160208183030381529060405292505050610fd6565b610fd1846117ba565b925050505b919050565b60096020528060005260406000206000915090505481565b600c6020528060005260406000206000915090505481565b6000600560008473ffffffffffffffffffffffffffffffffffffffff1673ffffffffffffffffffffffffffffffffffffffff16815260200190815260200160002060008373ffffffffffffffffffffffffffffffffffffffff1673ffffffffffffffffffffffffffffffffffffffff16815260200190815260200160002060009054906101000a900460ff16905092915050565b60007f01ffc9a7000000000000000000000000000000000000000000000000000000007bffffffffffffffffffffffffffffffffffffffffffffffffffffffff1916827bffffffffffffffffffffffffffffffffffffffffffffffffffffffff1916149050919050565b60008073ffffffffffffffffffffffffffffffffffffffff166002600084815260200190815260200160002060009054906101000a900473ffffffffffffffffffffffffffffffffffffffff1673ffffffffffffffffffffffffffffffffffffffff1614159050919050565b600033905090565b816004600083815260200190815260200160002060006101000a81548173ffffffffffffffffffffffffffffffffffffffff021916908373ffffffffffffffffffffffffffffffffffffffff160217905550808273ffffffffffffffffffffffffffffffffffffffff166111f083610962565b73ffffffffffffffffffffffffffffffffffffffff167f8c5be1e5ebec7d5bd14f71427d1e84f3dd0314c0f7b2291e5b200ac8c7c3b92560405160405180910390a45050565b611247611241611175565b826114fc565b611286576040517f08c379a000000000000000000000000000000000000000000000000000000000815260040161127d906129c9565b60405180910390fd5b611291838383611861565b505050565b6001816000016000828254019250508190555050565b600081600001549050919050565b600073ffffffffffffffffffffffffffffffffffffffff168273ffffffffffffffffffffffffffffffffffffffff16141561132a576040517f08c379a0000000000000000000000000000000000000000000000000000000008152600401611321906128e9565b60405180910390fd5b61133381611109565b15611373576040517f08c379a000000000000000000000000000000000000000000000000000000000815260040161136a906127e9565b60405180910390fd5b61137f60008383611abd565b6001600360008473ffffffffffffffffffffffffffffffffffffffff1673ffffffffffffffffffffffffffffffffffffffff16815260200190815260200160002060008282546113cf9190612b0e565b92505081905550816002600083815260200190815260200160002060006101000a81548173ffffffffffffffffffffffffffffffffffffffff021916908373ffffffffffffffffffffffffffffffffffffffff160217905550808273ffffffffffffffffffffffffffffffffffffffff16600073ffffffffffffffffffffffffffffffffffffffff167fddf252ad1be2c89b69c2b068fc378daa952ba7f163c4a11628f55a4df523b3ef60405160405180910390a45050565b61149182611109565b6114d0576040517f08c379a00000000000000000000000000000000000000000000000000000000081526004016114c7906128c9565b60405180910390fd5b806006600084815260200190815260200160002090805190602001906114f7929190611e19565b505050565b600061150782611109565b611546576040517f08c379a000000000000000000000000000000000000000000000000000000000815260040161153d90612849565b60405180910390fd5b600061155183610962565b90508073ffffffffffffffffffffffffffffffffffffffff168473ffffffffffffffffffffffffffffffffffffffff1614806115c057508373ffffffffffffffffffffffffffffffffffffffff166115a884610606565b73ffffffffffffffffffffffffffffffffffffffff16145b806115d157506115d0818561100b565b5b91505092915050565b8173ffffffffffffffffffffffffffffffffffffffff168373ffffffffffffffffffffffffffffffffffffffff161415611649576040517f08c379a000000000000000000000000000000000000000000000000000000000815260040161164090612829565b60405180910390fd5b80600560008573ffffffffffffffffffffffffffffffffffffffff1673ffffffffffffffffffffffffffffffffffffffff16815260200190815260200160002060008473ffffffffffffffffffffffffffffffffffffffff1673ffffffffffffffffffffffffffffffffffffffff16815260200190815260200160002060006101000a81548160ff0219169083151502179055508173ffffffffffffffffffffffffffffffffffffffff168373ffffffffffffffffffffffffffffffffffffffff167f17307eab39ab6107e8899845ad3d59bd9653f200f220920489ca2b5937696c318360405161173a919061276c565b60405180910390a3505050565b611752848484611861565b61175e84848484611ac2565b61179d576040517f08c379a0000000000000000000000000000000000000000000000000000000008152600401611794906127c9565b60405180910390fd5b50505050565b606060405180602001604052806000815250905090565b60606117c582611109565b611804576040517f08c379a00000000000000000000000000000000000000000000000000000000081526004016117fb90612969565b60405180910390fd5b600061180e6117a3565b9050600081511161182e5760405180602001604052806000815250611859565b8061183884611c59565b604051602001611849929190612673565b6040516020818303038152906040525b915050919050565b8273ffffffffffffffffffffffffffffffffffffffff1661188182610962565b73ffffffffffffffffffffffffffffffffffffffff16146118d7576040517f08c379a00000000000000000000000000000000000000000000000000000000081526004016118ce90612949565b60405180910390fd5b600073ffffffffffffffffffffffffffffffffffffffff168273ffffffffffffffffffffffffffffffffffffffff161415611947576040517f08c379a000000000000000000000000000000000000000000000000000000000815260040161193e90612809565b60405180910390fd5b611952838383611abd565b61195d60008261117d565b6001600360008573ffffffffffffffffffffffffffffffffffffffff1673ffffffffffffffffffffffffffffffffffffffff16815260200190815260200160002060008282546119ad9190612b95565b925050819055506001600360008473ffffffffffffffffffffffffffffffffffffffff1673ffffffffffffffffffffffffffffffffffffffff1681526020019081526020016000206000828254611a049190612b0e565b92505081905550816002600083815260200190815260200160002060006101000a81548173ffffffffffffffffffffffffffffffffffffffff021916908373ffffffffffffffffffffffffffffffffffffffff160217905550808273ffffffffffffffffffffffffffffffffffffffff168473ffffffffffffffffffffffffffffffffffffffff167fddf252ad1be2c89b69c2b068fc378daa952ba7f163c4a11628f55a4df523b3ef60405160405180910390a4505050565b505050565b6000611ae38473ffffffffffffffffffffffffffffffffffffffff16611e06565b15611c4c578373ffffffffffffffffffffffffffffffffffffffff1663150b7a02611b0c611175565b8786866040518563ffffffff1660e01b8152600401611b2e94939291906126b2565b602060405180830381600087803b158015611b4857600080fd5b505af1925050508015611b7957506040513d601f19601f82011682018060405250810190611b7691906121da565b60015b611bfc573d8060008114611ba9576040519150601f19603f3d011682016040523d82523d6000602084013e611bae565b606091505b50600081511415611bf4576040517f08c379a0000000000000000000000000000000000000000000000000000000008152600401611beb906127c9565b60405180910390fd5b805181602001fd5b63150b7a0260e01b7bffffffffffffffffffffffffffffffffffffffffffffffffffffffff1916817bffffffffffffffffffffffffffffffffffffffffffffffffffffffff191614915050611c51565b600190505b949350505050565b60606000821415611ca1576040518060400160405280600181526020017f30000000000000000000000000000000000000000000000000000000000000008152509050611e01565b600082905060005b60008214611cd3578080611cbc90612cef565b915050600a82611ccc9190612b64565b9150611ca9565b60008167ffffffffffffffff811115611d15577f4e487b7100000000000000000000000000000000000000000000000000000000600052604160045260246000fd5b6040519080825280601f01601f191660200182016040528015611d475781602001600182028036833780820191505090505b5090505b60008514611dfa57600182611d609190612b95565b9150600a85611d6f9190612d38565b6030611d7b9190612b0e565b60f81b818381518110611db7577f4e487b7100000000000000000000000000000000000000000000000000000000600052603260045260246000fd5b60200101907effffffffffffffffffffffffffffffffffffffffffffffffffffffffffffff1916908160001a905350600a85611df39190612b64565b9450611d4b565b8093505050505b919050565b600080823b905060008111915050919050565b828054611e2590612c8c565b90600052602060002090601f016020900481019282611e475760008555611e8e565b82601f10611e6057805160ff1916838001178555611e8e565b82800160010185558215611e8e579182015b82811115611e8d578251825591602001919060010190611e72565b5b509050611e9b9190611e9f565b5090565b5b80821115611eb8576000816000905550600101611ea0565b5090565b6000611ecf611eca84612a69565b612a44565b905082815260208101848484011115611ee757600080fd5b611ef2848285612c4a565b509392505050565b6000611f0d611f0884612a9a565b612a44565b905082815260208101848484011115611f2557600080fd5b611f30848285612c4a565b509392505050565b600081359050611f47816133f0565b92915050565b600081359050611f5c81613407565b92915050565b600081359050611f718161341e565b92915050565b600081519050611f868161341e565b92915050565b600082601f830112611f9d57600080fd5b8135611fad848260208601611ebc565b91505092915050565b600082601f830112611fc757600080fd5b8135611fd7848260208601611efa565b91505092915050565b600081359050611fef81613435565b92915050565b6000813590506120048161344c565b92915050565b60006020828403121561201c57600080fd5b600061202a84828501611f38565b91505092915050565b6000806040838503121561204657600080fd5b600061205485828601611f38565b925050602061206585828601611f38565b9150509250929050565b60008060006060848603121561208457600080fd5b600061209286828701611f38565b93505060206120a386828701611f38565b92505060406120b486828701611fe0565b9150509250925092565b600080600080608085870312156120d457600080fd5b60006120e287828801611f38565b94505060206120f387828801611f38565b935050604061210487828801611fe0565b925050606085013567ffffffffffffffff81111561212157600080fd5b61212d87828801611f8c565b91505092959194509250565b6000806040838503121561214c57600080fd5b600061215a85828601611f38565b925050602061216b85828601611f4d565b9150509250929050565b6000806040838503121561218857600080fd5b600061219685828601611f38565b92505060206121a785828601611fe0565b9150509250929050565b6000602082840312156121c357600080fd5b60006121d184828501611f62565b91505092915050565b6000602082840312156121ec57600080fd5b60006121fa84828501611f77565b91505092915050565b6000806040838503121561221657600080fd5b600083013567ffffffffffffffff81111561223057600080fd5b61223c85828601611fb6565b925050602061224d85828601611ff5565b9150509250929050565b60006020828403121561226957600080fd5b600061227784828501611fe0565b91505092915050565b60008060006060848603121561229557600080fd5b60006122a386828701611fe0565b935050602084013567ffffffffffffffff8111156122c057600080fd5b6122cc86828701611fb6565b92505060406122dd86828701611ff5565b9150509250925092565b6122f081612bc9565b82525050565b6122ff81612bdb565b82525050565b600061231082612acb565b61231a8185612ae1565b935061232a818560208601612c59565b61233381612e25565b840191505092915050565b600061234982612ad6565b6123538185612af2565b9350612363818560208601612c59565b61236c81612e25565b840191505092915050565b600061238282612ad6565b61238c8185612b03565b935061239c818560208601612c59565b80840191505092915050565b60006123b5602f83612af2565b91506123c082612e36565b604082019050919050565b60006123d8603283612af2565b91506123e382612e85565b604082019050919050565b60006123fb601c83612af2565b915061240682612ed4565b602082019050919050565b600061241e602483612af2565b915061242982612efd565b604082019050919050565b6000612441601983612af2565b915061244c82612f4c565b602082019050919050565b6000612464602c83612af2565b915061246f82612f75565b604082019050919050565b6000612487603883612af2565b915061249282612fc4565b604082019050919050565b60006124aa602a83612af2565b91506124b582613013565b604082019050919050565b60006124cd602983612af2565b91506124d882613062565b604082019050919050565b60006124f0602e83612af2565b91506124fb826130b1565b604082019050919050565b6000612513602083612af2565b915061251e82613100565b602082019050919050565b6000612536603183612af2565b915061254182613129565b604082019050919050565b6000612559602c83612af2565b915061256482613178565b604082019050919050565b600061257c602983612af2565b9150612587826131c7565b604082019050919050565b600061259f602f83612af2565b91506125aa82613216565b604082019050919050565b60006125c2603983612af2565b91506125cd82613265565b604082019050919050565b60006125e5602183612af2565b91506125f0826132b4565b604082019050919050565b6000612608603183612af2565b915061261382613303565b604082019050919050565b600061262b603383612af2565b915061263682613352565b604082019050919050565b600061264e602d83612af2565b9150612659826133a1565b604082019050919050565b61266d81612c33565b82525050565b600061267f8285612377565b915061268b8284612377565b91508190509392505050565b60006020820190506126ac60008301846122e7565b92915050565b60006080820190506126c760008301876122e7565b6126d460208301866122e7565b6126e16040830185612664565b81810360608301526126f38184612305565b905095945050505050565b600060408201905061271360008301856122e7565b8181036020830152612725818461233e565b90509392505050565b600060608201905061274360008301866122e7565b8181036020830152612755818561233e565b90506127646040830184612664565b949350505050565b600060208201905061278160008301846122f6565b92915050565b600060208201905081810360008301526127a1818461233e565b905092915050565b600060208201905081810360008301526127c2816123a8565b9050919050565b600060208201905081810360008301526127e2816123cb565b9050919050565b60006020820190508181036000830152612802816123ee565b9050919050565b6000602082019050818103600083015261282281612411565b9050919050565b6000602082019050818103600083015261284281612434565b9050919050565b6000602082019050818103600083015261286281612457565b9050919050565b600060208201905081810360008301526128828161247a565b9050919050565b600060208201905081810360008301526128a28161249d565b9050919050565b600060208201905081810360008301526128c2816124c0565b9050919050565b600060208201905081810360008301526128e2816124e3565b9050919050565b6000602082019050818103600083015261290281612506565b9050919050565b6000602082019050818103600083015261292281612529565b9050919050565b600060208201905081810360008301526129428161254c565b9050919050565b600060208201905081810360008301526129628161256f565b9050919050565b6000602082019050818103600083015261298281612592565b9050919050565b600060208201905081810360008301526129a2816125b5565b9050919050565b600060208201905081810360008301526129c2816125d8565b9050919050565b600060208201905081810360008301526129e2816125fb565b9050919050565b60006020820190508181036000830152612a028161261e565b9050919050565b60006020820190508181036000830152612a2281612641565b9050919050565b6000602082019050612a3e6000830184612664565b92915050565b6000612a4e612a5f565b9050612a5a8282612cbe565b919050565b6000604051905090565b600067ffffffffffffffff821115612a8457612a83612df6565b5b612a8d82612e25565b9050602081019050919050565b600067ffffffffffffffff821115612ab557612ab4612df6565b5b612abe82612e25565b9050602081019050919050565b600081519050919050565b600081519050919050565b600082825260208201905092915050565b600082825260208201905092915050565b600081905092915050565b6000612b1982612c33565b9150612b2483612c33565b9250827fffffffffffffffffffffffffffffffffffffffffffffffffffffffffffffffff03821115612b5957612b58612d69565b5b828201905092915050565b6000612b6f82612c33565b9150612b7a83612c33565b925082612b8a57612b89612d98565b5b828204905092915050565b6000612ba082612c33565b9150612bab83612c33565b925082821015612bbe57612bbd612d69565b5b828203905092915050565b6000612bd482612c13565b9050919050565b60008115159050919050565b60007fffffffff0000000000000000000000000000000000000000000000000000000082169050919050565b600073ffffffffffffffffffffffffffffffffffffffff82169050919050565b6000819050919050565b600060ff82169050919050565b82818337600083830152505050565b60005b83811015612c77578082015181840152602081019050612c5c565b83811115612c86576000848401525b50505050565b60006002820490506001821680612ca457607f821691505b60208210811415612cb857612cb7612dc7565b5b50919050565b612cc782612e25565b810181811067ffffffffffffffff82111715612ce657612ce5612df6565b5b80604052505050565b6000612cfa82612c33565b91507fffffffffffffffffffffffffffffffffffffffffffffffffffffffffffffffff821415612d2d57612d2c612d69565b5b600182019050919050565b6000612d4382612c33565b9150612d4e83612c33565b925082612d5e57612d5d612d98565b5b828206905092915050565b7f4e487b7100000000000000000000000000000000000000000000000000000000600052601160045260246000fd5b7f4e487b7100000000000000000000000000000000000000000000000000000000600052601260045260246000fd5b7f4e487b7100000000000000000000000000000000000000000000000000000000600052602260045260246000fd5b7f4e487b7100000000000000000000000000000000000000000000000000000000600052604160045260246000fd5b6000601f19601f8301169050919050565b7f706172656e744964206d7573742062652061637469766520746f20637265617460008201527f652061206e65772076657273696f6e0000000000000000000000000000000000602082015250565b7f4552433732313a207472616e7366657220746f206e6f6e20455243373231526560008201527f63656976657220696d706c656d656e7465720000000000000000000000000000602082015250565b7f4552433732313a20746f6b656e20616c7265616479206d696e74656400000000600082015250565b7f4552433732313a207472616e7366657220746f20746865207a65726f2061646460008201527f7265737300000000000000000000000000000000000000000000000000000000602082015250565b7f4552433732313a20617070726f766520746f2063616c6c657200000000000000600082015250565b7f4552433732313a206f70657261746f7220717565727920666f72206e6f6e657860008201527f697374656e7420746f6b656e0000000000000000000000000000000000000000602082015250565b7f4552433732313a20617070726f76652063616c6c6572206973206e6f74206f7760008201527f6e6572206e6f7220617070726f76656420666f7220616c6c0000000000000000602082015250565b7f4552433732313a2062616c616e636520717565727920666f7220746865207a6560008201527f726f206164647265737300000000000000000000000000000000000000000000602082015250565b7f4552433732313a206f776e657220717565727920666f72206e6f6e657869737460008201527f656e7420746f6b656e0000000000000000000000000000000000000000000000602082015250565b7f45524337323155524953746f726167653a2055524920736574206f66206e6f6e60008201527f6578697374656e7420746f6b656e000000000000000000000000000000000000602082015250565b7f4552433732313a206d696e7420746f20746865207a65726f2061646472657373600082015250565b7f45524337323155524953746f726167653a2055524920717565727920666f722060008201527f6e6f6e6578697374656e7420746f6b656e000000000000000000000000000000602082015250565b7f4552433732313a20617070726f76656420717565727920666f72206e6f6e657860008201527f697374656e7420746f6b656e0000000000000000000000000000000000000000602082015250565b7f4552433732313a207472616e73666572206f6620746f6b656e2074686174206960008201527f73206e6f74206f776e0000000000000000000000000000000000000000000000602082015250565b7f4552433732314d657461646174613a2055524920717565727920666f72206e6f60008201527f6e6578697374656e7420746f6b656e0000000000000000000000000000000000602082015250565b7f417474656d7074656420746f2063726561746520612076657273696f6e20677260008201527f6561746572207468616e20746865206d617856657273696f6e00000000000000602082015250565b7f4552433732313a20617070726f76616c20746f2063757272656e74206f776e6560008201527f7200000000000000000000000000000000000000000000000000000000000000602082015250565b7f4552433732313a207472616e736665722063616c6c6572206973206e6f74206f60008201527f776e6572206e6f7220617070726f766564000000000000000000000000000000602082015250565b7f4552433732313a204372656174654e6577562063616c6c6572206973206e6f7460008201527f206f776e6572206e6f7220617070726f76656400000000000000000000000000602082015250565b7f74686520706172656e74496427732076657273696f6e206d757374206265206760008201527f726561746572207468616e203000000000000000000000000000000000000000602082015250565b6133f981612bc9565b811461340457600080fd5b50565b61341081612bdb565b811461341b57600080fd5b50565b61342781612be7565b811461343257600080fd5b50565b61343e81612c33565b811461344957600080fd5b50565b61345581612c3d565b811461346057600080fd5b5056fea2646970667358221220f599be73aad30d685d8f5a3bc20fdfed88750af56139e185f0add85f9fca3a6764736f6c63430008040033",
  "linkReferences": {},
  "deployedLinkReferences": {}
}