{
  "_format": "hh-sol-artifact-1",
  "contractName": "Market",
  "sourceName": "contracts/Market.sol",
  "abi": [
    {
      "inputs": [
        {
          "internalType": "address",
          "name": "NFTAddress",
          "type": "address"
        }
      ],
      "stateMutability": "nonpayable",
      "type": "constructor"
    },
    {
      "anonymous": false,
      "inputs": [
        {
          "indexed": true,
          "internalType": "uint256",
          "name": "index",
          "type": "uint256"
        },
        {
          "indexed": false,
          "internalType": "address",
          "name": "bidder",
          "type": "address"
        },
        {
          "indexed": false,
          "internalType": "uint256",
          "name": "price",
          "type": "uint256"
        }
      ],
      "name": "FundsReturned",
      "type": "event"
    },
    {
      "anonymous": false,
      "inputs": [
        {
          "indexed": true,
          "internalType": "uint256",
          "name": "index",
          "type": "uint256"
        },
        {
          "indexed": false,
          "internalType": "address",
          "name": "bidder",
          "type": "address"
        },
        {
          "indexed": false,
          "internalType": "uint256",
          "name": "price",
          "type": "uint256"
        }
      ],
      "name": "OfferMade",
      "type": "event"
    },
    {
      "anonymous": false,
      "inputs": [
        {
          "indexed": true,
          "internalType": "address",
          "name": "previousOwner",
          "type": "address"
        },
        {
          "indexed": true,
          "internalType": "address",
          "name": "newOwner",
          "type": "address"
        }
      ],
      "name": "OwnershipTransferred",
      "type": "event"
    },
    {
      "anonymous": false,
      "inputs": [
        {
          "indexed": true,
          "internalType": "uint256",
          "name": "index",
          "type": "uint256"
        }
      ],
      "name": "SaleCanceled",
      "type": "event"
    },
    {
      "anonymous": false,
      "inputs": [
        {
          "indexed": true,
          "internalType": "uint256",
          "name": "index",
          "type": "uint256"
        },
        {
          "indexed": false,
          "internalType": "address",
          "name": "owner",
          "type": "address"
        },
        {
          "indexed": false,
          "internalType": "uint256",
          "name": "price",
          "type": "uint256"
        }
      ],
      "name": "TokenListed",
      "type": "event"
    },
    {
      "inputs": [],
      "name": "NFT",
      "outputs": [
        {
          "internalType": "contract MusicNFT",
          "name": "",
          "type": "address"
        }
      ],
      "stateMutability": "view",
      "type": "function"
    },
    {
      "inputs": [
        {
          "internalType": "uint256",
          "name": "tokenId",
          "type": "uint256"
        },
        {
          "internalType": "address",
          "name": "bidderAddress",
          "type": "address"
        }
      ],
      "name": "acceptOffer",
      "outputs": [],
      "stateMutability": "nonpayable",
      "type": "function"
    },
    {
      "inputs": [
        {
          "internalType": "uint256",
          "name": "tokenId",
          "type": "uint256"
        }
      ],
      "name": "buyNFT",
      "outputs": [],
      "stateMutability": "payable",
      "type": "function"
    },
    {
      "inputs": [
        {
          "internalType": "uint256",
          "name": "tokenId",
          "type": "uint256"
        }
      ],
      "name": "cancelSale",
      "outputs": [],
      "stateMutability": "nonpayable",
      "type": "function"
    },
    {
      "inputs": [
        {
          "internalType": "uint8",
          "name": "_marketFee",
          "type": "uint8"
        }
      ],
      "name": "changeMarketFee",
      "outputs": [],
      "stateMutability": "nonpayable",
      "type": "function"
    },
    {
      "inputs": [
        {
          "internalType": "uint8",
          "name": "_maxOffers",
          "type": "uint8"
        }
      ],
      "name": "changeMaxOffers",
      "outputs": [],
      "stateMutability": "nonpayable",
      "type": "function"
    },
    {
      "inputs": [
        {
          "internalType": "address",
          "name": "NFTAddress",
          "type": "address"
        }
      ],
      "name": "changeNFTAddress",
      "outputs": [],
      "stateMutability": "nonpayable",
      "type": "function"
    },
    {
      "inputs": [
        {
          "internalType": "uint256",
          "name": "tokenId",
          "type": "uint256"
        }
      ],
      "name": "getOffers",
      "outputs": [
        {
          "components": [
            {
              "internalType": "address",
              "name": "bidder",
              "type": "address"
            },
            {
              "internalType": "uint256",
              "name": "amount",
              "type": "uint256"
            }
          ],
          "internalType": "struct Market.Offer[]",
          "name": "",
          "type": "tuple[]"
        }
      ],
      "stateMutability": "view",
      "type": "function"
    },
    {
      "inputs": [
        {
          "internalType": "uint256",
          "name": "tokenId",
          "type": "uint256"
        },
        {
          "internalType": "uint256",
          "name": "_price",
          "type": "uint256"
        }
      ],
      "name": "listToken",
      "outputs": [],
      "stateMutability": "nonpayable",
      "type": "function"
    },
    {
      "inputs": [
        {
          "internalType": "uint256",
          "name": "tokenId",
          "type": "uint256"
        }
      ],
      "name": "makeOffer",
      "outputs": [],
      "stateMutability": "payable",
      "type": "function"
    },
    {
      "inputs": [],
      "name": "marketFee",
      "outputs": [
        {
          "internalType": "uint8",
          "name": "",
          "type": "uint8"
        }
      ],
      "stateMutability": "view",
      "type": "function"
    },
    {
      "inputs": [],
      "name": "maxOffers",
      "outputs": [
        {
          "internalType": "uint8",
          "name": "",
          "type": "uint8"
        }
      ],
      "stateMutability": "view",
      "type": "function"
    },
    {
      "inputs": [
        {
          "internalType": "uint256",
          "name": "",
          "type": "uint256"
        },
        {
          "internalType": "uint256",
          "name": "",
          "type": "uint256"
        }
      ],
      "name": "offers",
      "outputs": [
        {
          "internalType": "address",
          "name": "bidder",
          "type": "address"
        },
        {
          "internalType": "uint256",
          "name": "amount",
          "type": "uint256"
        }
      ],
      "stateMutability": "view",
      "type": "function"
    },
    {
      "inputs": [
        {
          "internalType": "uint256",
          "name": "",
          "type": "uint256"
        }
      ],
      "name": "onSale",
      "outputs": [
        {
          "internalType": "bool",
          "name": "",
          "type": "bool"
        }
      ],
      "stateMutability": "view",
      "type": "function"
    },
    {
      "inputs": [],
      "name": "owner",
      "outputs": [
        {
          "internalType": "address",
          "name": "",
          "type": "address"
        }
      ],
      "stateMutability": "view",
      "type": "function"
    },
    {
      "inputs": [],
      "name": "ownerFunds",
      "outputs": [
        {
          "internalType": "uint256",
          "name": "",
          "type": "uint256"
        }
      ],
      "stateMutability": "view",
      "type": "function"
    },
    {
      "inputs": [
        {
          "internalType": "uint256",
          "name": "",
          "type": "uint256"
        }
      ],
      "name": "price",
      "outputs": [
        {
          "internalType": "uint256",
          "name": "",
          "type": "uint256"
        }
      ],
      "stateMutability": "view",
      "type": "function"
    },
    {
      "inputs": [],
      "name": "renounceOwnership",
      "outputs": [],
      "stateMutability": "nonpayable",
      "type": "function"
    },
    {
      "inputs": [
        {
          "internalType": "uint256",
          "name": "",
          "type": "uint256"
        }
      ],
      "name": "seller",
      "outputs": [
        {
          "internalType": "address",
          "name": "",
          "type": "address"
        }
      ],
      "stateMutability": "view",
      "type": "function"
    },
    {
      "inputs": [
        {
          "internalType": "address",
          "name": "newOwner",
          "type": "address"
        }
      ],
      "name": "transferOwnership",
      "outputs": [],
      "stateMutability": "nonpayable",
      "type": "function"
    },
    {
      "inputs": [
        {
          "internalType": "uint256",
          "name": "amount",
          "type": "uint256"
        }
      ],
      "name": "withdrawFunds",
      "outputs": [],
      "stateMutability": "nonpayable",
      "type": "function"
    },
    {
      "inputs": [
        {
          "internalType": "uint256",
          "name": "tokenId",
          "type": "uint256"
        }
      ],
      "name": "withdrawOffer",
      "outputs": [],
      "stateMutability": "nonpayable",
      "type": "function"
    }
  ],
  "bytecode": "0x6080604052600a600760006101000a81548160ff021916908360ff1602179055506014600760016101000a81548160ff021916908360ff1602179055503480156200004957600080fd5b50604051620035bd380380620035bd83398181016040528101906200006f9190620001ba565b6200008f62000083620000d760201b60201c565b620000df60201b60201c565b80600160006101000a81548173ffffffffffffffffffffffffffffffffffffffff021916908373ffffffffffffffffffffffffffffffffffffffff1602179055505062000234565b600033905090565b60008060009054906101000a900473ffffffffffffffffffffffffffffffffffffffff169050816000806101000a81548173ffffffffffffffffffffffffffffffffffffffff021916908373ffffffffffffffffffffffffffffffffffffffff1602179055508173ffffffffffffffffffffffffffffffffffffffff168173ffffffffffffffffffffffffffffffffffffffff167f8be0079c531659141344cd1fd0a4f28419497f9722a3daafe3b4186f6b6457e060405160405180910390a35050565b600081519050620001b4816200021a565b92915050565b600060208284031215620001cd57600080fd5b6000620001dd84828501620001a3565b91505092915050565b6000620001f382620001fa565b9050919050565b600073ffffffffffffffffffffffffffffffffffffffff82169050919050565b6200022581620001e6565b81146200023157600080fd5b50565b61337980620002446000396000f3fe6080604052600436106101355760003560e01c80638da5cb5b116100ab578063b43a76f11161006f578063b43a76f1146103e1578063bd94b0051461041e578063c120213114610447578063dfa49e6f14610472578063f2fde38b146104af578063fca375c3146104d857610135565b80638da5cb5b1461030b578063918d407d1461033657806392dc3ddc1461035f5780639a2f647414610388578063aacdfe6f146103a457610135565b80634ec3426a116100fd5780634ec3426a1461023257806351ed82881461025b578063715018a61461027757806375c1631d1461028e5780637c0b8de2146102b75780638610f045146102e257610135565b80630ccf21561461013a578063155dd5ee1461016557806326a49e371461018e578063340a76ef146101cb5780634d03a9a5146101f4575b600080fd5b34801561014657600080fd5b5061014f610503565b60405161015c9190612dbd565b60405180910390f35b34801561017157600080fd5b5061018c600480360381019061018791906127ed565b610516565b005b34801561019a57600080fd5b506101b560048036038101906101b091906127ed565b61063a565b6040516101c29190612da2565b60405180910390f35b3480156101d757600080fd5b506101f260048036038101906101ed919061279b565b610652565b005b34801561020057600080fd5b5061021b6004803603810190610216919061287b565b610712565b604051610229929190612bc1565b60405180910390f35b34801561023e57600080fd5b50610259600480360381019061025491906128b7565b610773565b005b610275600480360381019061027091906127ed565b61080d565b005b34801561028357600080fd5b5061028c610974565b005b34801561029a57600080fd5b506102b560048036038101906102b0919061287b565b6109fc565b005b3480156102c357600080fd5b506102cc610b61565b6040516102d99190612c27565b60405180910390f35b3480156102ee57600080fd5b50610309600480360381019061030491906127ed565b610b87565b005b34801561031757600080fd5b50610320610f06565b60405161032d9190612b6f565b60405180910390f35b34801561034257600080fd5b5061035d6004803603810190610358919061283f565b610f2f565b005b34801561036b57600080fd5b50610386600480360381019061038191906128b7565b6112ea565b005b6103a2600480360381019061039d91906127ed565b611384565b005b3480156103b057600080fd5b506103cb60048036038101906103c691906127ed565b611686565b6040516103d89190612b6f565b60405180910390f35b3480156103ed57600080fd5b50610408600480360381019061040391906127ed565b6116b9565b6040516104159190612c0c565b60405180910390f35b34801561042a57600080fd5b50610445600480360381019061044091906127ed565b6116d9565b005b34801561045357600080fd5b5061045c61193c565b6040516104699190612da2565b60405180910390f35b34801561047e57600080fd5b50610499600480360381019061049491906127ed565b611942565b6040516104a69190612bea565b60405180910390f35b3480156104bb57600080fd5b506104d660048036038101906104d1919061279b565b611a14565b005b3480156104e457600080fd5b506104ed611b0c565b6040516104fa9190612dbd565b60405180910390f35b600760009054906101000a900460ff1681565b61051e611b1f565b73ffffffffffffffffffffffffffffffffffffffff1661053c610f06565b73ffffffffffffffffffffffffffffffffffffffff1614610592576040517f08c379a000000000000000000000000000000000000000000000000000000000815260040161058990612ce2565b60405180910390fd5b8060065410156105d7576040517f08c379a00000000000000000000000000000000000000000000000000000000081526004016105ce90612cc2565b60405180910390fd5b80600660008282546105e99190612f03565b925050819055503373ffffffffffffffffffffffffffffffffffffffff166108fc829081150290604051600060405180830381858888f19350505050158015610636573d6000803e3d6000fd5b5050565b60036020528060005260406000206000915090505481565b61065a611b1f565b73ffffffffffffffffffffffffffffffffffffffff16610678610f06565b73ffffffffffffffffffffffffffffffffffffffff16146106ce576040517f08c379a00000000000000000000000000000000000000000000000000000000081526004016106c590612ce2565b60405180910390fd5b80600160006101000a81548173ffffffffffffffffffffffffffffffffffffffff021916908373ffffffffffffffffffffffffffffffffffffffff16021790555050565b6005602052816000526040600020818154811061072e57600080fd5b9060005260206000209060020201600091509150508060000160009054906101000a900473ffffffffffffffffffffffffffffffffffffffff16908060010154905082565b61077b611b1f565b73ffffffffffffffffffffffffffffffffffffffff16610799610f06565b73ffffffffffffffffffffffffffffffffffffffff16146107ef576040517f08c379a00000000000000000000000000000000000000000000000000000000081526004016107e690612ce2565b60405180910390fd5b80600760016101000a81548160ff021916908360ff16021790555050565b6003600082815260200190815260200160002054341015610863576040517f08c379a000000000000000000000000000000000000000000000000000000000815260040161085a90612ca2565b60405180910390fd5b6004600082815260200190815260200160002060009054906101000a900460ff166108c3576040517f08c379a00000000000000000000000000000000000000000000000000000000081526004016108ba90612c62565b60405180910390fd5b6108e0816003600084815260200190815260200160002054611b27565b600160009054906101000a900473ffffffffffffffffffffffffffffffffffffffff1673ffffffffffffffffffffffffffffffffffffffff166323b872dd3033846040518463ffffffff1660e01b815260040161093f93929190612b8a565b600060405180830381600087803b15801561095957600080fd5b505af115801561096d573d6000803e3d6000fd5b5050505050565b61097c611b1f565b73ffffffffffffffffffffffffffffffffffffffff1661099a610f06565b73ffffffffffffffffffffffffffffffffffffffff16146109f0576040517f08c379a00000000000000000000000000000000000000000000000000000000081526004016109e790612ce2565b60405180910390fd5b6109fa60006122af565b565b600160009054906101000a900473ffffffffffffffffffffffffffffffffffffffff1673ffffffffffffffffffffffffffffffffffffffff166323b872dd3330856040518463ffffffff1660e01b8152600401610a5b93929190612b8a565b600060405180830381600087803b158015610a7557600080fd5b505af1158015610a89573d6000803e3d6000fd5b50505050336002600084815260200190815260200160002060006101000a81548173ffffffffffffffffffffffffffffffffffffffff021916908373ffffffffffffffffffffffffffffffffffffffff16021790555080600360008481526020019081526020016000208190555060016004600084815260200190815260200160002060006101000a81548160ff021916908315150217905550817f7765a1c07bdce3390c521eaeb86030b188b77cbaba2d76bd7c9c32d906bfbcba3383604051610b55929190612bc1565b60405180910390a25050565b600160009054906101000a900473ffffffffffffffffffffffffffffffffffffffff1681565b60006005600083815260200190815260200160002090506000808280549050905060005b81811015610e79578215610cc857838181548110610bf2577f4e487b7100000000000000000000000000000000000000000000000000000000600052603260045260246000fd5b906000526020600020906002020184600183610c0e9190612f03565b81548110610c45577f4e487b7100000000000000000000000000000000000000000000000000000000600052603260045260246000fd5b90600052602060002090600202016000820160009054906101000a900473ffffffffffffffffffffffffffffffffffffffff168160000160006101000a81548173ffffffffffffffffffffffffffffffffffffffff021916908373ffffffffffffffffffffffffffffffffffffffff160217905550600182015481600101559050505b3373ffffffffffffffffffffffffffffffffffffffff16848281548110610d18577f4e487b7100000000000000000000000000000000000000000000000000000000600052603260045260246000fd5b906000526020600020906002020160000160009054906101000a900473ffffffffffffffffffffffffffffffffffffffff1673ffffffffffffffffffffffffffffffffffffffff161415610e6657838181548110610d9f577f4e487b7100000000000000000000000000000000000000000000000000000000600052603260045260246000fd5b906000526020600020906002020160000160009054906101000a900473ffffffffffffffffffffffffffffffffffffffff1673ffffffffffffffffffffffffffffffffffffffff166108fc858381548110610e23577f4e487b7100000000000000000000000000000000000000000000000000000000600052603260045260246000fd5b9060005260206000209060020201600101549081150290604051600060405180830381858888f19350505050158015610e60573d6000803e3d6000fd5b50600192505b8080610e7190612fb0565b915050610bab565b508115610f005782805480610eb7577f4e487b7100000000000000000000000000000000000000000000000000000000600052603160045260246000fd5b6001900381819060005260206000209060020201600080820160006101000a81549073ffffffffffffffffffffffffffffffffffffffff02191690556001820160009055505090555b50505050565b60008060009054906101000a900473ffffffffffffffffffffffffffffffffffffffff16905090565b6002600083815260200190815260200160002060009054906101000a900473ffffffffffffffffffffffffffffffffffffffff1673ffffffffffffffffffffffffffffffffffffffff163373ffffffffffffffffffffffffffffffffffffffff1614610fd0576040517f08c379a0000000000000000000000000000000000000000000000000000000008152600401610fc790612d02565b60405180910390fd5b6004600083815260200190815260200160002060009054906101000a900460ff16611030576040517f08c379a000000000000000000000000000000000000000000000000000000000815260040161102790612c62565b60405180910390fd5b600060056000848152602001908152602001600020905060008180549050905060008060005b8381101561123f578573ffffffffffffffffffffffffffffffffffffffff168582815481106110ae577f4e487b7100000000000000000000000000000000000000000000000000000000600052603260045260246000fd5b906000526020600020906002020160000160009054906101000a900473ffffffffffffffffffffffffffffffffffffffff1673ffffffffffffffffffffffffffffffffffffffff16141561122c5760019250848181548110611139577f4e487b7100000000000000000000000000000000000000000000000000000000600052603260045260246000fd5b90600052602060002090600202016001015491506000858281548110611188577f4e487b7100000000000000000000000000000000000000000000000000000000600052603260045260246000fd5b90600052602060002090600202016001018190555060008582815481106111d8577f4e487b7100000000000000000000000000000000000000000000000000000000600052603260045260246000fd5b906000526020600020906002020160000160006101000a81548173ffffffffffffffffffffffffffffffffffffffff021916908373ffffffffffffffffffffffffffffffffffffffff16021790555061123f565b808061123790612fb0565b915050611056565b5081156112e2576112508682611b27565b600160009054906101000a900473ffffffffffffffffffffffffffffffffffffffff1673ffffffffffffffffffffffffffffffffffffffff166323b872dd3087896040518463ffffffff1660e01b81526004016112af93929190612b8a565b600060405180830381600087803b1580156112c957600080fd5b505af11580156112dd573d6000803e3d6000fd5b505050505b505050505050565b6112f2611b1f565b73ffffffffffffffffffffffffffffffffffffffff16611310610f06565b73ffffffffffffffffffffffffffffffffffffffff1614611366576040517f08c379a000000000000000000000000000000000000000000000000000000000815260040161135d90612ce2565b60405180910390fd5b80600760006101000a81548160ff021916908360ff16021790555050565b600080600090505b6005600084815260200190815260200160002080549050811015611476573373ffffffffffffffffffffffffffffffffffffffff1660056000858152602001908152602001600020828154811061140c577f4e487b7100000000000000000000000000000000000000000000000000000000600052603260045260246000fd5b906000526020600020906002020160000160009054906101000a900473ffffffffffffffffffffffffffffffffffffffff1673ffffffffffffffffffffffffffffffffffffffff1614156114635760019150611476565b808061146e90612fb0565b91505061138c565b5060001515811515146114be576040517f08c379a00000000000000000000000000000000000000000000000000000000081526004016114b590612d62565b60405180910390fd5b600760019054906101000a900460ff1660ff166114da83611942565b511061151b576040517f08c379a000000000000000000000000000000000000000000000000000000000815260040161151290612c82565b60405180910390fd5b600360008381526020019081526020016000205434106115445761153e8261080d565b50611683565b60003411611587576040517f08c379a000000000000000000000000000000000000000000000000000000000815260040161157e90612d82565b60405180910390fd5b600060405180604001604052803373ffffffffffffffffffffffffffffffffffffffff1681526020013481525090506005600084815260200190815260200160002081908060018154018082558091505060019003906000526020600020906002020160009091909190915060008201518160000160006101000a81548173ffffffffffffffffffffffffffffffffffffffff021916908373ffffffffffffffffffffffffffffffffffffffff160217905550602082015181600101555050827fbdf1e76c2ba2a5c85b93bf78678a4a3b06d63b18422612dac8d7d5249ed467143334604051611678929190612bc1565b60405180910390a250505b50565b60026020528060005260406000206000915054906101000a900473ffffffffffffffffffffffffffffffffffffffff1681565b60046020528060005260406000206000915054906101000a900460ff1681565b6002600082815260200190815260200160002060009054906101000a900473ffffffffffffffffffffffffffffffffffffffff1673ffffffffffffffffffffffffffffffffffffffff163373ffffffffffffffffffffffffffffffffffffffff161461177a576040517f08c379a000000000000000000000000000000000000000000000000000000000815260040161177190612d42565b60405180910390fd5b6004600082815260200190815260200160002060009054906101000a900460ff166117da576040517f08c379a00000000000000000000000000000000000000000000000000000000081526004016117d190612d22565b60405180910390fd5b6117e381612373565b60006002600083815260200190815260200160002060006101000a81548173ffffffffffffffffffffffffffffffffffffffff021916908373ffffffffffffffffffffffffffffffffffffffff1602179055506000600360008381526020019081526020016000208190555060006004600083815260200190815260200160002060006101000a81548160ff021916908315150217905550807fbc3d8540adfcf6600ea8f790c6ed415a6aa7a1219d45ecefc5bdff014348a8b060405160405180910390a2600160009054906101000a900473ffffffffffffffffffffffffffffffffffffffff1673ffffffffffffffffffffffffffffffffffffffff166323b872dd3033846040518463ffffffff1660e01b815260040161190793929190612b8a565b600060405180830381600087803b15801561192157600080fd5b505af1158015611935573d6000803e3d6000fd5b5050505050565b60065481565b606060056000838152602001908152602001600020805480602002602001604051908101604052809291908181526020016000905b82821015611a0957838290600052602060002090600202016040518060400160405290816000820160009054906101000a900473ffffffffffffffffffffffffffffffffffffffff1673ffffffffffffffffffffffffffffffffffffffff1673ffffffffffffffffffffffffffffffffffffffff16815260200160018201548152505081526020019060010190611977565b505050509050919050565b611a1c611b1f565b73ffffffffffffffffffffffffffffffffffffffff16611a3a610f06565b73ffffffffffffffffffffffffffffffffffffffff1614611a90576040517f08c379a0000000000000000000000000000000000000000000000000000000008152600401611a8790612ce2565b60405180910390fd5b600073ffffffffffffffffffffffffffffffffffffffff168173ffffffffffffffffffffffffffffffffffffffff161415611b00576040517f08c379a0000000000000000000000000000000000000000000000000000000008152600401611af790612c42565b60405180910390fd5b611b09816122af565b50565b600760019054906101000a900460ff1681565b600033905090565b60006064600760009054906101000a900460ff1660ff1683611b499190612ea9565b611b539190612e78565b82611b5e9190612f03565b90508082611b6c9190612f03565b60066000828254611b7d9190612e22565b9250508190555060008390506000808390505b6000600160009054906101000a900473ffffffffffffffffffffffffffffffffffffffff1673ffffffffffffffffffffffffffffffffffffffff16634eaa9d22856040518263ffffffff1660e01b8152600401611bed9190612da2565b60206040518083038186803b158015611c0557600080fd5b505afa158015611c19573d6000803e3d6000fd5b505050506040513d601f19601f82011682018060405250810190611c3d9190612816565b1115611eb857600160009054906101000a900473ffffffffffffffffffffffffffffffffffffffff1673ffffffffffffffffffffffffffffffffffffffff16634eaa9d22846040518263ffffffff1660e01b8152600401611c9e9190612da2565b60206040518083038186803b158015611cb657600080fd5b505afa158015611cca573d6000803e3d6000fd5b505050506040513d601f19601f82011682018060405250810190611cee9190612816565b92506064600160009054906101000a900473ffffffffffffffffffffffffffffffffffffffff1673ffffffffffffffffffffffffffffffffffffffff1663e814cb71856040518263ffffffff1660e01b8152600401611d4d9190612da2565b60206040518083038186803b158015611d6557600080fd5b505afa158015611d79573d6000803e3d6000fd5b505050506040513d601f19601f82011682018060405250810190611d9d9190612816565b85611da89190612ea9565b611db29190612e78565b91508181611dc09190612f03565b9050600160009054906101000a900473ffffffffffffffffffffffffffffffffffffffff1673ffffffffffffffffffffffffffffffffffffffff1663ac8d856c846040518263ffffffff1660e01b8152600401611e1d9190612da2565b60206040518083038186803b158015611e3557600080fd5b505afa158015611e49573d6000803e3d6000fd5b505050506040513d601f19601f82011682018060405250810190611e6d91906127c4565b73ffffffffffffffffffffffffffffffffffffffff166108fc839081150290604051600060405180830381858888f19350505050158015611eb2573d6000803e3d6000fd5b50611b90565b6002600087815260200190815260200160002060009054906101000a900473ffffffffffffffffffffffffffffffffffffffff1673ffffffffffffffffffffffffffffffffffffffff16600160009054906101000a900473ffffffffffffffffffffffffffffffffffffffff1673ffffffffffffffffffffffffffffffffffffffff1663ac8d856c886040518263ffffffff1660e01b8152600401611f5d9190612da2565b60206040518083038186803b158015611f7557600080fd5b505afa158015611f89573d6000803e3d6000fd5b505050506040513d601f19601f82011682018060405250810190611fad91906127c4565b73ffffffffffffffffffffffffffffffffffffffff161461218c576064600160009054906101000a900473ffffffffffffffffffffffffffffffffffffffff1673ffffffffffffffffffffffffffffffffffffffff1663e814cb71886040518263ffffffff1660e01b81526004016120259190612da2565b60206040518083038186803b15801561203d57600080fd5b505afa158015612051573d6000803e3d6000fd5b505050506040513d601f19601f820116820180604052508101906120759190612816565b856120809190612ea9565b61208a9190612e78565b915081816120989190612f03565b9050600160009054906101000a900473ffffffffffffffffffffffffffffffffffffffff1673ffffffffffffffffffffffffffffffffffffffff1663ac8d856c876040518263ffffffff1660e01b81526004016120f59190612da2565b60206040518083038186803b15801561210d57600080fd5b505afa158015612121573d6000803e3d6000fd5b505050506040513d601f19601f8201168201806040525081019061214591906127c4565b73ffffffffffffffffffffffffffffffffffffffff166108fc839081150290604051600060405180830381858888f1935050505015801561218a573d6000803e3d6000fd5b505b6002600087815260200190815260200160002060009054906101000a900473ffffffffffffffffffffffffffffffffffffffff1673ffffffffffffffffffffffffffffffffffffffff166108fc829081150290604051600060405180830381858888f19350505050158015612205573d6000803e3d6000fd5b5061220f86612373565b60006002600088815260200190815260200160002060006101000a81548173ffffffffffffffffffffffffffffffffffffffff021916908373ffffffffffffffffffffffffffffffffffffffff1602179055506000600360008881526020019081526020016000208190555060006004600088815260200190815260200160002060006101000a81548160ff021916908315150217905550505050505050565b60008060009054906101000a900473ffffffffffffffffffffffffffffffffffffffff169050816000806101000a81548173ffffffffffffffffffffffffffffffffffffffff021916908373ffffffffffffffffffffffffffffffffffffffff1602179055508173ffffffffffffffffffffffffffffffffffffffff168173ffffffffffffffffffffffffffffffffffffffff167f8be0079c531659141344cd1fd0a4f28419497f9722a3daafe3b4186f6b6457e060405160405180910390a35050565b600060056000838152602001908152602001600020905060008180549050905060005b8181101561272c57600073ffffffffffffffffffffffffffffffffffffffff1683826001856123c59190612f03565b6123cf9190612f03565b81548110612406577f4e487b7100000000000000000000000000000000000000000000000000000000600052603260045260246000fd5b906000526020600020906002020160000160009054906101000a900473ffffffffffffffffffffffffffffffffffffffff1673ffffffffffffffffffffffffffffffffffffffff16111561269a5782816001846124639190612f03565b61246d9190612f03565b815481106124a4577f4e487b7100000000000000000000000000000000000000000000000000000000600052603260045260246000fd5b906000526020600020906002020160000160009054906101000a900473ffffffffffffffffffffffffffffffffffffffff1673ffffffffffffffffffffffffffffffffffffffff166108fc84836001866124fe9190612f03565b6125089190612f03565b8154811061253f577f4e487b7100000000000000000000000000000000000000000000000000000000600052603260045260246000fd5b9060005260206000209060020201600101549081150290604051600060405180830381858888f1935050505015801561257c573d6000803e3d6000fd5b50837f68f78b8ca5dadf1c8477d7aac04f14a21d77f8a1e702b86bdb9ff3e419a9647184836001866125ae9190612f03565b6125b89190612f03565b815481106125ef577f4e487b7100000000000000000000000000000000000000000000000000000000600052603260045260246000fd5b906000526020600020906002020160000160009054906101000a900473ffffffffffffffffffffffffffffffffffffffff1685846001876126309190612f03565b61263a9190612f03565b81548110612671577f4e487b7100000000000000000000000000000000000000000000000000000000600052603260045260246000fd5b906000526020600020906002020160010154604051612691929190612bc1565b60405180910390a25b828054806126d1577f4e487b7100000000000000000000000000000000000000000000000000000000600052603160045260246000fd5b6001900381819060005260206000209060020201600080820160006101000a81549073ffffffffffffffffffffffffffffffffffffffff0219169055600182016000905550509055808061272490612fb0565b915050612396565b50505050565b600081359050612741816132fe565b92915050565b600081519050612756816132fe565b92915050565b60008135905061276b81613315565b92915050565b60008151905061278081613315565b92915050565b6000813590506127958161332c565b92915050565b6000602082840312156127ad57600080fd5b60006127bb84828501612732565b91505092915050565b6000602082840312156127d657600080fd5b60006127e484828501612747565b91505092915050565b6000602082840312156127ff57600080fd5b600061280d8482850161275c565b91505092915050565b60006020828403121561282857600080fd5b600061283684828501612771565b91505092915050565b6000806040838503121561285257600080fd5b60006128608582860161275c565b925050602061287185828601612732565b9150509250929050565b6000806040838503121561288e57600080fd5b600061289c8582860161275c565b92505060206128ad8582860161275c565b9150509250929050565b6000602082840312156128c957600080fd5b60006128d784828501612786565b91505092915050565b60006128ec8383612b13565b60408301905092915050565b61290181612f37565b82525050565b61291081612f37565b82525050565b600061292182612de8565b61292b8185612e00565b935061293683612dd8565b8060005b8381101561296757815161294e88826128e0565b975061295983612df3565b92505060018101905061293a565b5085935050505092915050565b61297d81612f49565b82525050565b61298c81612f8c565b82525050565b600061299f602683612e11565b91506129aa82613057565b604082019050919050565b60006129c2601683612e11565b91506129cd826130a6565b602082019050919050565b60006129e5601283612e11565b91506129f0826130cf565b602082019050919050565b6000612a08602283612e11565b9150612a13826130f8565b604082019050919050565b6000612a2b602183612e11565b9150612a3682613147565b604082019050919050565b6000612a4e602083612e11565b9150612a5982613196565b602082019050919050565b6000612a71602383612e11565b9150612a7c826131bf565b604082019050919050565b6000612a94601883612e11565b9150612a9f8261320e565b602082019050919050565b6000612ab7602383612e11565b9150612ac282613237565b604082019050919050565b6000612ada602983612e11565b9150612ae582613286565b604082019050919050565b6000612afd601b83612e11565b9150612b08826132d5565b602082019050919050565b604082016000820151612b2960008501826128f8565b506020820151612b3c6020850182612b42565b50505050565b612b4b81612f75565b82525050565b612b5a81612f75565b82525050565b612b6981612f7f565b82525050565b6000602082019050612b846000830184612907565b92915050565b6000606082019050612b9f6000830186612907565b612bac6020830185612907565b612bb96040830184612b51565b949350505050565b6000604082019050612bd66000830185612907565b612be36020830184612b51565b9392505050565b60006020820190508181036000830152612c048184612916565b905092915050565b6000602082019050612c216000830184612974565b92915050565b6000602082019050612c3c6000830184612983565b92915050565b60006020820190508181036000830152612c5b81612992565b9050919050565b60006020820190508181036000830152612c7b816129b5565b9050919050565b60006020820190508181036000830152612c9b816129d8565b9050919050565b60006020820190508181036000830152612cbb816129fb565b9050919050565b60006020820190508181036000830152612cdb81612a1e565b9050919050565b60006020820190508181036000830152612cfb81612a41565b9050919050565b60006020820190508181036000830152612d1b81612a64565b9050919050565b60006020820190508181036000830152612d3b81612a87565b9050919050565b60006020820190508181036000830152612d5b81612aaa565b9050919050565b60006020820190508181036000830152612d7b81612acd565b9050919050565b60006020820190508181036000830152612d9b81612af0565b9050919050565b6000602082019050612db76000830184612b51565b92915050565b6000602082019050612dd26000830184612b60565b92915050565b6000819050602082019050919050565b600081519050919050565b6000602082019050919050565b600082825260208201905092915050565b600082825260208201905092915050565b6000612e2d82612f75565b9150612e3883612f75565b9250827fffffffffffffffffffffffffffffffffffffffffffffffffffffffffffffffff03821115612e6d57612e6c612ff9565b5b828201905092915050565b6000612e8382612f75565b9150612e8e83612f75565b925082612e9e57612e9d613028565b5b828204905092915050565b6000612eb482612f75565b9150612ebf83612f75565b9250817fffffffffffffffffffffffffffffffffffffffffffffffffffffffffffffffff0483118215151615612ef857612ef7612ff9565b5b828202905092915050565b6000612f0e82612f75565b9150612f1983612f75565b925082821015612f2c57612f2b612ff9565b5b828203905092915050565b6000612f4282612f55565b9050919050565b60008115159050919050565b600073ffffffffffffffffffffffffffffffffffffffff82169050919050565b6000819050919050565b600060ff82169050919050565b6000612f9782612f9e565b9050919050565b6000612fa982612f55565b9050919050565b6000612fbb82612f75565b91507fffffffffffffffffffffffffffffffffffffffffffffffffffffffffffffffff821415612fee57612fed612ff9565b5b600182019050919050565b7f4e487b7100000000000000000000000000000000000000000000000000000000600052601160045260246000fd5b7f4e487b7100000000000000000000000000000000000000000000000000000000600052601260045260246000fd5b7f4f776e61626c653a206e6577206f776e657220697320746865207a65726f206160008201527f6464726573730000000000000000000000000000000000000000000000000000602082015250565b7f6974656d2068617320746f206265206f6e2073616c6500000000000000000000600082015250565b7f6d6178206f666665727320726561636865640000000000000000000000000000600082015250565b7f616d6f756e742073686f756c6420626520686967686572207468616e2070726960008201527f6365000000000000000000000000000000000000000000000000000000000000602082015250565b7f616d6f756e742068617320746f206265206c6f776572207468616e2066756e6460008201527f7300000000000000000000000000000000000000000000000000000000000000602082015250565b7f4f776e61626c653a2063616c6c6572206973206e6f7420746865206f776e6572600082015250565b7f6f6e6c79207468652073656c6c65722063616e2061636365707420616e206f6660008201527f6665720000000000000000000000000000000000000000000000000000000000602082015250565b7f74686520746f6b656e206973206e6f74206f6e2073616c650000000000000000600082015250565b7f6f6e6c79207468652073656c6c65722063616e2063616e63656c20746865207360008201527f616c650000000000000000000000000000000000000000000000000000000000602082015250565b7f62696464657220616c726564792065786973742c207769746864726177206f6660008201527f6665722066697273740000000000000000000000000000000000000000000000602082015250565b7f6f666665722073686f756c64206265206d6f7265207468616e20300000000000600082015250565b61330781612f37565b811461331257600080fd5b50565b61331e81612f75565b811461332957600080fd5b50565b61333581612f7f565b811461334057600080fd5b5056fea264697066735822122050cbedbde1e9719cc5d888a11b922431a143ff7e3f00958e468b63910977093964736f6c63430008040033",
  "linkReferences": {},
  "deployedLinkReferences": {}
}